:1000000035C044C043C042C041C088C53FC03EC0A7
:100010003DC03CC03BC0E3C339C00EC437C036C08E
:1000200035C034C033C053C555C557C559C55BC568
:100030005DC55FC561C563C565C567C5CCC5D5C5AB
:10004000DEC5E7C5F0C5F9C502C60BC629C632C66E
:100050003BC644C64DC656C65FC668C682C68BC67A
:1000600094C69DC6A6C6AFC6B8C6C1C611241FBEDB
:10007000CFE5D4E0DEBFCDBF21E0A0E6B0E001C017
:100080001D92A83EB207E1F7EAD638C7B9CF982F3C
:10009000962381E0691380E008951BBC1ABC19BC4B
:1000A00018BC8FE392E097BD86BD82EA8FBD8CE1DC
:1000B0008EBD89B7806289BF0895E0916200F0919A
:1000C0006300309709F009950895E3E9F0E02BE922
:1000D00030E080E09191890FE217F307D9F7809320
:1000E0009B000895CF93DF93EC019093AD00809334
:1000F000AC0045E050E0BC018CE990E0C8D68091AE
:100100009C00823481F0ECE9F0E082E4808384E0BA
:10011000818389E08283138282E0848345E050E01A
:10012000BE01CF01D5D6E0916000F091610030971B
:1001300019F080919D000995ECE9F0E084818093AD
:10014000AE0082818093A200DF91CF910895E3E910
:10015000F0E09091AE0090839091A2009183828311
:100160008091A40083837483658356834783ADDFC6
:10017000A4DF08959091A3008091A200981315C068
:10018000E3EAF0E02BEA30E080E09191890FE2179A
:10019000F307D9F79091AB00981749F040E050E091
:1001A000BA0181E0D4DF83E0089582E0089580E021
:1001B00008950F931F93CF93DF931F92CDB7DEB7B0
:1001C000E3EAF0E08481458150E060E070E0BA014C
:1001D00055274427782B8781482B8681582B4093BD
:1001E0008F00509390006093910070939200118162
:1001F0001D3009F4A7C2B0F41530B1F148F4123043
:1002000069F1143009F49EC2113009F095C220C082
:10021000193009F4A1C11A3009F430C2163009F0BE
:100220008BC268C0133150F4103108F08BC21E30FD
:1002300009F4CFC01F3009F425C17EC2183809F473
:100240005BC21E3F09F47EC21C3109F075C27AC23E
:1002500040E050E0BA0184E67ADF74C240E050E04A
:10026000BA0184E674DF6EC21091A600112339F042
:1002700040E050E0BA0184E06ADF10E063C28091A0
:10028000A5008630E9F028F4843041F0853079F01B
:100290002BC08730F1F08C3829F126C040937A00CA
:1002A00050937B0060937C0070937D001DC0409351
:1002B0007E0050937F00609380007093810014C093
:1002C0004093820050938300609384007093850074
:1002D0000BC0409386005093870060938800709312
:1002E000890002C040938A0040E050E0BA0184E6F1
:1002F0002EDF28C21091A600112339F040E050E013
:10030000BA0184E024DF10E01DC28091A500863090
:1003100031F130F48430C9F1B8F4813051F053C078
:100320008C38F1F1843C09F443C0873009F04BC0AC
:1003300021C04091760050917700609178007091D3
:10034000790084E604DFFEC140917E0050917F0079
:10035000609180007091810084E6F9DEF3C14091E4
:10036000820050918300609184007091850084E642
:10037000EEDEE8C1409186005091870060918800D0
:100380007091890084E6E3DEDDC140917A005091EE
:100390007B0060917C0070917D0084E6D8DED2C144
:1003A00040918A0050E060E070E084E6D0DECAC18F
:1003B00040918B0050918C0060918D0070918E0067
:1003C00084E6C5DEBFC140E050E0BA0184E0BFDE94
:1003D000B9C18091A600813009F4B4C118F082300F
:1003E00039F04AC040E050E0BA0183E0B0DEAAC173
:1003F0008091A5008130B1F018F0823029F136C02B
:1004000091E0452B462B472B09F490E08091710039
:1004100090FB80F98093710040E050E0BA0184E6DF
:1004200096DE90C191E0452B462B472B09F490E0D6
:100430008091710090FB81F98093710040E050E061
:10044000BA0184E684DE7EC191E0452B462B472B22
:1004500009F490E08091710090FB82F98093710023
:1004600040E050E0BA0184E672DE6CC140E050E04A
:10047000BA0183E06CDE66C140E050E0BA0183E07F
:1004800066DE60C10091A600013009F45BC128F06E
:10049000023009F43FC010E055C11091A5001130A1
:1004A00079F028F01230B9F0133009F12CC04091E6
:1004B000A100417050E060E070E084E648DE42C197
:1004C0004091A1004695417050E060E070E084E604
:1004D0003EDE102F37C14091A10042FB442740F976
:1004E00050E060E070E084E632DE102F2BC14091D6
:1004F000A10043FB442740F950E060E070E084E64F
:1005000026DE102F1FC140E050E0BA0184E01FDE5C
:10051000102F18C11091A500112319F0113051F0BE
:1005200014C040917100417050E060E070E084E6DA
:100530000EDE08C1409171004695417050E060E0C8
:1005400070E084E604DE10E0FDC040E050E0BA0157
:1005500084E0FDDD10E0F6C01091A600112339F013
:1005600040E050E0BA0184E0F2DD10E0EBC08091A1
:10057000A500813431F118F4803439F079C0823427
:10058000E9F18C3409F457C073C080919C0090E06D
:10059000A0E0B0E0481759076A077B0761F0409375
:1005A0009C00198229818091AC009091AD00642F4C
:1005B000820F911D7CD440E050E0BA0184E6C7DD93
:1005C000C1C080919D0090E0A0E0B0E048175907BD
:1005D0006A077B0769F040939D0081E08983298148
:1005E0008091AC009091AD00642F820F911D5FD47B
:1005F00040E050E0BA0184E6AADDA4C080919E00EC
:1006000090E0A0E0B0E0481759076A077B0769F05F
:1006100040939E0082E0898329818091AC00909173
:10062000AD00642F820F911D42D440E050E0BA012A
:1006300084E68DDD87C08091A00090E0A0E0B0E06E
:10064000481759076A077B0769F04093A00084E0C8
:10065000898329818091AC009091AD00642F820F35
:10066000911D25D440E050E0BA0184E670DD6AC0F7
:1006700040E050E0BA0184E06ADD64C01091A60059
:10068000112339F040E050E0BA0184E060DD10E071
:1006900059C08091A500813449F018F48034F1F0FC
:1006A00025C0823459F08C3489F020C040919D00DF
:1006B00050E060E070E084E64ADD44C040919E0076
:1006C00050E060E070E084E642DD3CC04091A00074
:1006D00050E060E070E084E63ADD34C040919C0078
:1006E00050E060E070E084E632DD2CC040E050E095
:1006F000BA0184E02CDD26C01091A500111114C0B0
:10070000E3E9F0E08091AE00808389E0818312828A
:10071000138285E1848386E5858382E3868380E393
:1007200087838087CADC0EC040E450E360E270E15A
:1007300084E60DDD10E006C040E050E0BA0182E042
:1007400006DD10E0812F0F90DF91CF911F910F9167
:10075000089590916D0080916E00981761F09091CE
:100760006E009F5F9F70E92FF0E0E85BFE4F808195
:1007700090936E00089580E0089590916D009F5FC2
:100780009F70E92FF0E0E85BFE4F808390936D004F
:10079000089590916C00E92FF0E0E155FF4F8081C2
:1007A0009F5F90936C0008958091650080FD0AC062
:1007B00080916500816080936500929A10926C0030
:1007C000E8DF8CB90895882311F0579A0895579857
:1007D0000895882311F0569A0895569808951F9207
:1007E0000F920FB60F9211242F933F934F935F9365
:1007F0006F937F938F939F93AF93BF93EF93FF93E9
:1008000085E0809367008BB190916600892B80937F
:1008100066008CB1B2DFFF91EF91BF91AF919F91D4
:100820008F917F916F915F914F913F912F910F9099
:100830000FBE0F901F9018951F920F920FB60F9238
:1008400011242F933F934F935F936F937F938F93D5
:100850009F93AF93BF93EF93FF938091650080FFC9
:100860000DC080916C00893038F0809165008E7FDA
:1008700080936500929802C08CDF8CB9FF91EF9154
:10088000BF91AF919F918F917F916F915F914F91A8
:100890003F912F910F900FBE0F901F90189587E0FA
:1008A00089B98AB188618AB981E08DDF81E091DF01
:1008B000109266000895CF92DF92FF920F931F93DC
:1008C000CF93DF9390916A0080916B00981741F16C
:1008D0008091650080FD24C060916B006F5F6F7038
:1008E000862F90E09C01220F331F220F331F220F0F
:1008F000331F280F391F285A3E4FA901475F5F4F0A
:10090000F901DF01A21BB30B8191A155BF4F8C935D
:10091000E417F507B1F760936B0010926C0044DFA9
:100920008091650083FD55C080916D0090916E00AF
:10093000891B8F70893008F44CC0F090680081E00A
:100940008F0D8F70F82E082F10E0E801CC0FDD1FFF
:10095000CC0FDD1FCC0FDD1FC00FD11FC854DF4FE0
:100960006E0189E0C80ED11CF4DE8993CC15DD053B
:10097000D9F7EF2DF0E0CF01880F991F880F991F4D
:10098000880F991FE80FF91FE854FF4F90E080E0AF
:100990002191920F8F5F8830D9F7F801EE0FFF1F7A
:1009A000EE0FFF1FEE0FFF1F0E0F1F1FF801E85481
:1009B000FF4F8085891308C080916500886080930F
:1009C0006500F092680005C08091650080618093A9
:1009D0006500DF91CF911F910F91FF90DF90CF9035
:1009E000089580916700882341F0809167008150CD
:1009F00080936700109264000895809164008111D3
:100A000007C080916D0080936E0081E08093640048
:100A10000895809169008F5F8F7090E09C01220F94
:100A2000331F220F331F220F331F820F931F88544F
:100A30009F4F0895809169008F5F8F708093690048
:100A40008091680090916900891B8F7029F49091C2
:100A50006500977F909365000895CF93FC01C09146
:100A60006A00CF5FCF708C2F90E0DC01AA0FBB1F14
:100A7000AA0FBB1FAA0FBB1FA80FB91FA85ABE4FB2
:100A8000BF01685F7F4F80E04C2F50E09A0190815A
:100A90009D939191890FE617F707C1F7FA01EE0FC1
:100AA000FF1FEE0FFF1FEE0FFF1F2E0F3F1FF9015D
:100AB000E85AFE4F8087C0936A00CF91089590E076
:100AC0008B30910520F5FC01ED5EFF4F09948FE519
:100AD00089B908958FE389B908958FE289B9089596
:100AE0008FE189B9089587E189B908958FE089B9BF
:100AF00008958BE089B9089587E089B9089583E066
:100B000089B9089582E089B9089519B808958FE2E6
:100B100089B9089583E990E0A0DF08951F920F92AC
:100B20000FB60F9211248F9381E0809370008F9104
:100B30000F900FBE0F901F90189580917000882322
:100B400051F0109270004DDF80916F00882319F0F2
:100B5000815080936F0008958091650083FF7EC16E
:100B600058DFDC01E3EAF0E02CEA30E08D9181937C
:100B7000E217F307D9F75EDF80916500877F8093E6
:100B80006500F8DA81116AC114DB8D3109F066C1A4
:100B90008091A500882321F0813009F43DC159C11D
:100BA0008091A6008C3009F46BC08D3009F4C9C067
:100BB0008B3009F02BC180918F0090919000A09113
:100BC0009100B09192008830910508F054C0FC016A
:100BD000E25EFF4F099488B360E059DA482F50E095
:100BE00060E070E084E6B3DA4BC088B361E04FDACE
:100BF000482F50E060E070E084E6A9DA41C088B395
:100C000062E045DA482F50E060E070E084E69FDA69
:100C100037C088B363E03BDA482F50E060E070E013
:100C200084E695DA2DC088B364E031DA482F50E0CD
:100C300060E070E084E68BDA23C088B365E027DAF1
:100C4000482F50E060E070E084E681DA19C088B394
:100C500066E01DDA482F50E060E070E084E677DA65
:100C60000FC088B367E013DA482F50E060E070E00F
:100C700084E66DDA05C040E050E0BA0186E667DA46
:100C800080918F0090919000A0919100B09192007E
:100C90008830910508F050C0FC01EA5DFF4F0994CF
:100CA00085B360E0F4D9482F50E060E070E084E65E
:100CB0004EDA47C085B361E0EAD9482F50E060E0E2
:100CC00070E084E644DA3DC085B362E0E0D9482FA5
:100CD00050E060E070E084E63ADA33C085B363E068
:100CE000D6D9482F50E060E070E084E630DA29C0C1
:100CF00085B364E0CCD9482F50E060E070E084E632
:100D000026DA1FC085B365E0C2D9482F50E060E005
:100D100070E084E61CDA15C085B366E0B8D9482FC8
:100D200050E060E070E084E612DA0BC040E050E092
:100D3000BA0186E60CDA05C040E050E0BA0186E66A
:100D400006DA80918F0090919000A0919100B0916F
:100D500092008830910508F054C0FC01E25DFF4F1D
:100D6000099482B360E093D9482F50E060E070E0CE
:100D700084E6EDD94BC082B361E089D9482F50E0B9
:100D800060E070E084E6E3D941C082B362E07FD9DD
:100D9000482F50E060E070E084E6D9D937C082B3D4
:100DA00063E075D9482F50E060E070E084E6CFD969
:100DB0002DC082B364E06BD9482F50E060E070E052
:100DC00084E6C5D923C082B365E061D9482F50E0DD
:100DD00060E070E084E6BBD919C082B366E057D901
:100DE000482F50E060E070E084E6B1D90FC082B3D4
:100DF00067E04DD9482F50E060E070E084E6A7D965
:100E000005C040E050E0BA0186E6A1D940E050E0DC
:100E1000BA0186E69CD908958091A600813041F4FC
:100E2000AC9A41E050E060E070E084E690D911C0F7
:100E3000811107C0AC9840E050E0BA0184E687D940
:100E400008C0AC984091A60050E060E070E086E6F3
:100E50007ED940E050E0BA0186E679D908958A9AB1
:100E6000A49A1BD91CDD8FE595E0909361008093D7
:100E700060008AE895E0909363008093620080E1CF
:100E800090E030D9789459DE16DD66DEFCCFDC01C7
:100E9000CB01FC01E199FECF06C0FFBBEEBBE09A9F
:100EA00031960DB20D9241505040B8F70895262F5B
:100EB000E199FECF9FBB8EBBE09A01970DB202165F
:100EC00031F02DBB0FB6F894E29AE19A0FBE089567
:100ED000DC01CB0102C02D9105D041505040D8F724
:100EE0000895262FE199FECF9FBB8EBB2DBB0FB679
:100EF000F894E29AE19A0FBE01960895F894FFCF14
:00000001FF
